{
  "_format": "hh-sol-artifact-1",
  "contractName": "MyEpicNFT",
  "sourceName": "contracts/MyEpicNFT.sol",
  "abi": [
    {
      "inputs": [],
      "stateMutability": "nonpayable",
      "type": "constructor"
    },
    {
      "anonymous": false,
      "inputs": [
        {
          "indexed": true,
          "internalType": "address",
          "name": "owner",
          "type": "address"
        },
        {
          "indexed": true,
          "internalType": "address",
          "name": "approved",
          "type": "address"
        },
        {
          "indexed": true,
          "internalType": "uint256",
          "name": "tokenId",
          "type": "uint256"
        }
      ],
      "name": "Approval",
      "type": "event"
    },
    {
      "anonymous": false,
      "inputs": [
        {
          "indexed": true,
          "internalType": "address",
          "name": "owner",
          "type": "address"
        },
        {
          "indexed": true,
          "internalType": "address",
          "name": "operator",
          "type": "address"
        },
        {
          "indexed": false,
          "internalType": "bool",
          "name": "approved",
          "type": "bool"
        }
      ],
      "name": "ApprovalForAll",
      "type": "event"
    },
    {
      "anonymous": false,
      "inputs": [
        {
          "indexed": false,
          "internalType": "address",
          "name": "sender",
          "type": "address"
        },
        {
          "indexed": false,
          "internalType": "uint256",
          "name": "tokenId",
          "type": "uint256"
        }
      ],
      "name": "NewEpicNFTMinted",
      "type": "event"
    },
    {
      "anonymous": false,
      "inputs": [
        {
          "indexed": true,
          "internalType": "address",
          "name": "from",
          "type": "address"
        },
        {
          "indexed": true,
          "internalType": "address",
          "name": "to",
          "type": "address"
        },
        {
          "indexed": true,
          "internalType": "uint256",
          "name": "tokenId",
          "type": "uint256"
        }
      ],
      "name": "Transfer",
      "type": "event"
    },
    {
      "inputs": [
        {
          "internalType": "address",
          "name": "to",
          "type": "address"
        },
        {
          "internalType": "uint256",
          "name": "tokenId",
          "type": "uint256"
        }
      ],
      "name": "approve",
      "outputs": [],
      "stateMutability": "nonpayable",
      "type": "function"
    },
    {
      "inputs": [
        {
          "internalType": "address",
          "name": "owner",
          "type": "address"
        }
      ],
      "name": "balanceOf",
      "outputs": [
        {
          "internalType": "uint256",
          "name": "",
          "type": "uint256"
        }
      ],
      "stateMutability": "view",
      "type": "function"
    },
    {
      "inputs": [
        {
          "internalType": "uint256",
          "name": "tokenId",
          "type": "uint256"
        }
      ],
      "name": "getApproved",
      "outputs": [
        {
          "internalType": "address",
          "name": "",
          "type": "address"
        }
      ],
      "stateMutability": "view",
      "type": "function"
    },
    {
      "inputs": [],
      "name": "getTotalNFTsMintedSoFar",
      "outputs": [
        {
          "internalType": "uint256",
          "name": "",
          "type": "uint256"
        }
      ],
      "stateMutability": "view",
      "type": "function"
    },
    {
      "inputs": [
        {
          "internalType": "address",
          "name": "owner",
          "type": "address"
        },
        {
          "internalType": "address",
          "name": "operator",
          "type": "address"
        }
      ],
      "name": "isApprovedForAll",
      "outputs": [
        {
          "internalType": "bool",
          "name": "",
          "type": "bool"
        }
      ],
      "stateMutability": "view",
      "type": "function"
    },
    {
      "inputs": [],
      "name": "makeAnEpicNFT",
      "outputs": [],
      "stateMutability": "nonpayable",
      "type": "function"
    },
    {
      "inputs": [],
      "name": "name",
      "outputs": [
        {
          "internalType": "string",
          "name": "",
          "type": "string"
        }
      ],
      "stateMutability": "view",
      "type": "function"
    },
    {
      "inputs": [
        {
          "internalType": "uint256",
          "name": "tokenId",
          "type": "uint256"
        }
      ],
      "name": "ownerOf",
      "outputs": [
        {
          "internalType": "address",
          "name": "",
          "type": "address"
        }
      ],
      "stateMutability": "view",
      "type": "function"
    },
    {
      "inputs": [
        {
          "internalType": "uint256",
          "name": "tokenId",
          "type": "uint256"
        }
      ],
      "name": "pickRandomColor",
      "outputs": [
        {
          "internalType": "string",
          "name": "",
          "type": "string"
        }
      ],
      "stateMutability": "nonpayable",
      "type": "function"
    },
    {
      "inputs": [
        {
          "internalType": "uint256",
          "name": "tokenId",
          "type": "uint256"
        }
      ],
      "name": "pickRandomLetter",
      "outputs": [
        {
          "internalType": "string",
          "name": "",
          "type": "string"
        }
      ],
      "stateMutability": "nonpayable",
      "type": "function"
    },
    {
      "inputs": [
        {
          "internalType": "uint256",
          "name": "tokenId",
          "type": "uint256"
        }
      ],
      "name": "pickRandomNumber",
      "outputs": [
        {
          "internalType": "string",
          "name": "",
          "type": "string"
        }
      ],
      "stateMutability": "nonpayable",
      "type": "function"
    },
    {
      "inputs": [
        {
          "internalType": "address",
          "name": "from",
          "type": "address"
        },
        {
          "internalType": "address",
          "name": "to",
          "type": "address"
        },
        {
          "internalType": "uint256",
          "name": "tokenId",
          "type": "uint256"
        }
      ],
      "name": "safeTransferFrom",
      "outputs": [],
      "stateMutability": "nonpayable",
      "type": "function"
    },
    {
      "inputs": [
        {
          "internalType": "address",
          "name": "from",
          "type": "address"
        },
        {
          "internalType": "address",
          "name": "to",
          "type": "address"
        },
        {
          "internalType": "uint256",
          "name": "tokenId",
          "type": "uint256"
        },
        {
          "internalType": "bytes",
          "name": "_data",
          "type": "bytes"
        }
      ],
      "name": "safeTransferFrom",
      "outputs": [],
      "stateMutability": "nonpayable",
      "type": "function"
    },
    {
      "inputs": [
        {
          "internalType": "address",
          "name": "operator",
          "type": "address"
        },
        {
          "internalType": "bool",
          "name": "approved",
          "type": "bool"
        }
      ],
      "name": "setApprovalForAll",
      "outputs": [],
      "stateMutability": "nonpayable",
      "type": "function"
    },
    {
      "inputs": [
        {
          "internalType": "bytes4",
          "name": "interfaceId",
          "type": "bytes4"
        }
      ],
      "name": "supportsInterface",
      "outputs": [
        {
          "internalType": "bool",
          "name": "",
          "type": "bool"
        }
      ],
      "stateMutability": "view",
      "type": "function"
    },
    {
      "inputs": [],
      "name": "symbol",
      "outputs": [
        {
          "internalType": "string",
          "name": "",
          "type": "string"
        }
      ],
      "stateMutability": "view",
      "type": "function"
    },
    {
      "inputs": [
        {
          "internalType": "uint256",
          "name": "tokenId",
          "type": "uint256"
        }
      ],
      "name": "tokenURI",
      "outputs": [
        {
          "internalType": "string",
          "name": "",
          "type": "string"
        }
      ],
      "stateMutability": "view",
      "type": "function"
    },
    {
      "inputs": [
        {
          "internalType": "address",
          "name": "from",
          "type": "address"
        },
        {
          "internalType": "address",
          "name": "to",
          "type": "address"
        },
        {
          "internalType": "uint256",
          "name": "tokenId",
          "type": "uint256"
        }
      ],
      "name": "transferFrom",
      "outputs": [],
      "stateMutability": "nonpayable",
      "type": "function"
    }
  ],
  "bytecode": "0x60806040526040518060e0016040528060b9815260200162006a3d60b99139600990805190602001906200003592919062002b3f565b50604051806101600160405280610131815260200162006af66101319139600a90805190602001906200006a92919062002b3f565b506040518061032001604052806040518060400160405280600181526020017f410000000000000000000000000000000000000000000000000000000000000081525081526020016040518060400160405280600181526020017f420000000000000000000000000000000000000000000000000000000000000081525081526020016040518060400160405280600181526020017f430000000000000000000000000000000000000000000000000000000000000081525081526020016040518060400160405280600181526020017f440000000000000000000000000000000000000000000000000000000000000081525081526020016040518060400160405280600181526020017f450000000000000000000000000000000000000000000000000000000000000081525081526020016040518060400160405280600181526020017f460000000000000000000000000000000000000000000000000000000000000081525081526020016040518060400160405280600181526020017f470000000000000000000000000000000000000000000000000000000000000081525081526020016040518060400160405280600181526020017f480000000000000000000000000000000000000000000000000000000000000081525081526020016040518060400160405280600181526020017f490000000000000000000000000000000000000000000000000000000000000081525081526020016040518060400160405280600181526020017f4a0000000000000000000000000000000000000000000000000000000000000081525081526020016040518060400160405280600181526020017f4b0000000000000000000000000000000000000000000000000000000000000081525081526020016040518060400160405280600181526020017f4c0000000000000000000000000000000000000000000000000000000000000081525081526020016040518060400160405280600181526020017f4d0000000000000000000000000000000000000000000000000000000000000081525081526020016040518060400160405280600181526020017f4e0000000000000000000000000000000000000000000000000000000000000081525081526020016040518060400160405280600181526020017f4f0000000000000000000000000000000000000000000000000000000000000081525081526020016040518060400160405280600181526020017f500000000000000000000000000000000000000000000000000000000000000081525081526020016040518060400160405280600181526020017f510000000000000000000000000000000000000000000000000000000000000081525081526020016040518060400160405280600181526020017f520000000000000000000000000000000000000000000000000000000000000081525081526020016040518060400160405280600181526020017f530000000000000000000000000000000000000000000000000000000000000081525081526020016040518060400160405280600181526020017f540000000000000000000000000000000000000000000000000000000000000081525081526020016040518060400160405280600181526020017f550000000000000000000000000000000000000000000000000000000000000081525081526020016040518060400160405280600181526020017f560000000000000000000000000000000000000000000000000000000000000081525081526020016040518060400160405280600181526020017f580000000000000000000000000000000000000000000000000000000000000081525081526020016040518060400160405280600181526020017f590000000000000000000000000000000000000000000000000000000000000081525081526020016040518060400160405280600181526020017f5a00000000000000000000000000000000000000000000000000000000000000815250815250600b9060196200064a92919062002bd0565b506040518061014001604052806040518060400160405280600181526020017f300000000000000000000000000000000000000000000000000000000000000081525081526020016040518060400160405280600181526020017f310000000000000000000000000000000000000000000000000000000000000081525081526020016040518060400160405280600181526020017f320000000000000000000000000000000000000000000000000000000000000081525081526020016040518060400160405280600181526020017f330000000000000000000000000000000000000000000000000000000000000081525081526020016040518060400160405280600181526020017f340000000000000000000000000000000000000000000000000000000000000081525081526020016040518060400160405280600181526020017f350000000000000000000000000000000000000000000000000000000000000081525081526020016040518060400160405280600181526020017f360000000000000000000000000000000000000000000000000000000000000081525081526020016040518060400160405280600181526020017f370000000000000000000000000000000000000000000000000000000000000081525081526020016040518060400160405280600181526020017f380000000000000000000000000000000000000000000000000000000000000081525081526020016040518060400160405280600181526020017f3900000000000000000000000000000000000000000000000000000000000000815250815250600c90600a620008b592919062002c37565b50604051806111a001604052806040518060400160405280600981526020017f616c696365626c7565000000000000000000000000000000000000000000000081525081526020016040518060400160405280600481526020017f617175610000000000000000000000000000000000000000000000000000000081525081526020016040518060400160405280600a81526020017f617175616d6172696e650000000000000000000000000000000000000000000081525081526020016040518060400160405280600581526020017f617a75726500000000000000000000000000000000000000000000000000000081525081526020016040518060400160405280600581526020017f626569676500000000000000000000000000000000000000000000000000000081525081526020016040518060400160405280600681526020017f626973717565000000000000000000000000000000000000000000000000000081525081526020016040518060400160405280600581526020017f626c61636b00000000000000000000000000000000000000000000000000000081525081526020016040518060400160405280600e81526020017f626c616e63686564616c6d6f6e6400000000000000000000000000000000000081525081526020016040518060400160405280600481526020017f626c75650000000000000000000000000000000000000000000000000000000081525081526020016040518060400160405280600a81526020017f626c756576696f6c65740000000000000000000000000000000000000000000081525081526020016040518060400160405280600581526020017f62726f776e00000000000000000000000000000000000000000000000000000081525081526020016040518060400160405280600981526020017f6275726c79776f6f64000000000000000000000000000000000000000000000081525081526020016040518060400160405280600981526020017f6361646574626c7565000000000000000000000000000000000000000000000081525081526020016040518060400160405280600a81526020017f636861727472657573650000000000000000000000000000000000000000000081525081526020016040518060400160405280600981526020017f63686f636f6c617465000000000000000000000000000000000000000000000081525081526020016040518060400160405280600581526020017f636f72616c00000000000000000000000000000000000000000000000000000081525081526020016040518060400160405280600e81526020017f636f726e666c6f776572626c756500000000000000000000000000000000000081525081526020016040518060400160405280600881526020017f636f726e73696c6b00000000000000000000000000000000000000000000000081525081526020016040518060400160405280600781526020017f6372696d736f6e0000000000000000000000000000000000000000000000000081525081526020016040518060400160405280600481526020017f6379616e0000000000000000000000000000000000000000000000000000000081525081526020016040518060400160405280600881526020017f6461726b626c756500000000000000000000000000000000000000000000000081525081526020016040518060400160405280600881526020017f6461726b6379616e00000000000000000000000000000000000000000000000081525081526020016040518060400160405280600d81526020017f6461726b676f6c64656e726f640000000000000000000000000000000000000081525081526020016040518060400160405280600881526020017f6461726b6772617900000000000000000000000000000000000000000000000081525081526020016040518060400160405280600981526020017f6461726b677265656e000000000000000000000000000000000000000000000081525081526020016040518060400160405280600881526020017f6461726b6772657900000000000000000000000000000000000000000000000081525081526020016040518060400160405280600981526020017f6461726b6b68616b69000000000000000000000000000000000000000000000081525081526020016040518060400160405280600b81526020017f6461726b6d6167656e746100000000000000000000000000000000000000000081525081526020016040518060400160405280600e81526020017f6461726b6f6c697665677265656e00000000000000000000000000000000000081525081526020016040518060400160405280600a81526020017f6461726b6f72616e67650000000000000000000000000000000000000000000081525081526020016040518060400160405280600a81526020017f6461726b6f72636869640000000000000000000000000000000000000000000081525081526020016040518060400160405280600781526020017f6461726b7265640000000000000000000000000000000000000000000000000081525081526020016040518060400160405280600a81526020017f6461726b73616c6d6f6e0000000000000000000000000000000000000000000081525081526020016040518060400160405280600c81526020017f6461726b736561677265656e000000000000000000000000000000000000000081525081526020016040518060400160405280600d81526020017f6461726b736c617465626c75650000000000000000000000000000000000000081525081526020016040518060400160405280600d81526020017f6461726b736c617465677261790000000000000000000000000000000000000081525081526020016040518060400160405280600d81526020017f6461726b736c617465677265790000000000000000000000000000000000000081525081526020016040518060400160405280600d81526020017f6461726b74757271756f6973650000000000000000000000000000000000000081525081526020016040518060400160405280600a81526020017f6461726b76696f6c65740000000000000000000000000000000000000000000081525081526020016040518060400160405280600881526020017f6465657070696e6b00000000000000000000000000000000000000000000000081525081526020016040518060400160405280600b81526020017f64656570736b79626c756500000000000000000000000000000000000000000081525081526020016040518060400160405280600781526020017f64696d677261790000000000000000000000000000000000000000000000000081525081526020016040518060400160405280600781526020017f64696d677265790000000000000000000000000000000000000000000000000081525081526020016040518060400160405280600a81526020017f646f64676572626c75650000000000000000000000000000000000000000000081525081526020016040518060400160405280600981526020017f66697265627269636b000000000000000000000000000000000000000000000081525081526020016040518060400160405280600b81526020017f666f72657374677265656e00000000000000000000000000000000000000000081525081526020016040518060400160405280600781526020017f667563687369610000000000000000000000000000000000000000000000000081525081526020016040518060400160405280600981526020017f6761696e73626f726f000000000000000000000000000000000000000000000081525081526020016040518060400160405280600481526020017f676f6c640000000000000000000000000000000000000000000000000000000081525081526020016040518060400160405280600981526020017f676f6c64656e726f64000000000000000000000000000000000000000000000081525081526020016040518060400160405280600481526020017f677261790000000000000000000000000000000000000000000000000000000081525081526020016040518060400160405280600581526020017f677265656e00000000000000000000000000000000000000000000000000000081525081526020016040518060400160405280600b81526020017f677265656e79656c6c6f7700000000000000000000000000000000000000000081525081526020016040518060400160405280600481526020017f677265790000000000000000000000000000000000000000000000000000000081525081526020016040518060400160405280600881526020017f686f6e657964657700000000000000000000000000000000000000000000000081525081526020016040518060400160405280600781526020017f686f7470696e6b0000000000000000000000000000000000000000000000000081525081526020016040518060400160405280600981526020017f696e6469616e726564000000000000000000000000000000000000000000000081525081526020016040518060400160405280600681526020017f696e6469676f000000000000000000000000000000000000000000000000000081525081526020016040518060400160405280600581526020017f69766f727900000000000000000000000000000000000000000000000000000081525081526020016040518060400160405280600581526020017f6b68616b6900000000000000000000000000000000000000000000000000000081525081526020016040518060400160405280600881526020017f6c6176656e64657200000000000000000000000000000000000000000000000081525081526020016040518060400160405280600d81526020017f6c6176656e646572626c7573680000000000000000000000000000000000000081525081526020016040518060400160405280600981526020017f6c61776e677265656e000000000000000000000000000000000000000000000081525081526020016040518060400160405280600c81526020017f6c656d6f6e63686966666f6e000000000000000000000000000000000000000081525081526020016040518060400160405280600981526020017f6c69676874626c7565000000000000000000000000000000000000000000000081525081526020016040518060400160405280600a81526020017f6c69676874636f72616c0000000000000000000000000000000000000000000081525081526020016040518060400160405280600981526020017f6c696768746379616e000000000000000000000000000000000000000000000081525081526020016040518060400160405280601481526020017f6c69676874676f6c64656e726f6479656c6c6f7700000000000000000000000081525081526020016040518060400160405280600981526020017f6c6967687467726179000000000000000000000000000000000000000000000081525081526020016040518060400160405280600a81526020017f6c69676874677265656e0000000000000000000000000000000000000000000081525081526020016040518060400160405280600981526020017f6c6967687467726579000000000000000000000000000000000000000000000081525081526020016040518060400160405280600981526020017f6c6967687470696e6b000000000000000000000000000000000000000000000081525081526020016040518060400160405280600b81526020017f6c6967687473616c6d6f6e00000000000000000000000000000000000000000081525081526020016040518060400160405280600d81526020017f6c69676874736561677265656e0000000000000000000000000000000000000081525081526020016040518060400160405280600c81526020017f6c69676874736b79626c7565000000000000000000000000000000000000000081525081526020016040518060400160405280600e81526020017f6c69676874736c6174656772617900000000000000000000000000000000000081525081526020016040518060400160405280600e81526020017f6c69676874736c6174656772657900000000000000000000000000000000000081525081526020016040518060400160405280600e81526020017f6c69676874737465656c626c756500000000000000000000000000000000000081525081526020016040518060400160405280600b81526020017f6c6967687479656c6c6f7700000000000000000000000000000000000000000081525081526020016040518060400160405280600481526020017f6c696d650000000000000000000000000000000000000000000000000000000081525081526020016040518060400160405280600981526020017f6c696d65677265656e000000000000000000000000000000000000000000000081525081526020016040518060400160405280600581526020017f6c696e656e00000000000000000000000000000000000000000000000000000081525081526020016040518060400160405280600781526020017f6d6167656e74610000000000000000000000000000000000000000000000000081525081526020016040518060400160405280600681526020017f6d61726f6f6e000000000000000000000000000000000000000000000000000081525081526020016040518060400160405280601081526020017f6d656469756d617175616d6172696e650000000000000000000000000000000081525081526020016040518060400160405280600a81526020017f6d656469756d626c75650000000000000000000000000000000000000000000081525081526020016040518060400160405280600c81526020017f6d656469756d6f7263686964000000000000000000000000000000000000000081525081526020016040518060400160405280600c81526020017f6d656469756d707572706c65000000000000000000000000000000000000000081525081526020016040518060400160405280600e81526020017f6d656469756d736561677265656e00000000000000000000000000000000000081525081526020016040518060400160405280600f81526020017f6d656469756d736c617465626c7565000000000000000000000000000000000081525081526020016040518060400160405280601181526020017f6d656469756d737072696e67677265656e00000000000000000000000000000081525081526020016040518060400160405280600f81526020017f6d656469756d74757271756f697365000000000000000000000000000000000081525081526020016040518060400160405280600f81526020017f6d656469756d76696f6c6574726564000000000000000000000000000000000081525081526020016040518060400160405280600c81526020017f6d69646e69676874626c7565000000000000000000000000000000000000000081525081526020016040518060400160405280600981526020017f6d696e74637265616d000000000000000000000000000000000000000000000081525081526020016040518060400160405280600981526020017f6d69737479726f7365000000000000000000000000000000000000000000000081525081526020016040518060400160405280600881526020017f6d6f63636173696e00000000000000000000000000000000000000000000000081525081526020016040518060400160405280600481526020017f6e6176790000000000000000000000000000000000000000000000000000000081525081526020016040518060400160405280600781526020017f6f6c646c6163650000000000000000000000000000000000000000000000000081525081526020016040518060400160405280600581526020017f6f6c69766500000000000000000000000000000000000000000000000000000081525081526020016040518060400160405280600981526020017f6f6c69766564726162000000000000000000000000000000000000000000000081525081526020016040518060400160405280600681526020017f6f72616e6765000000000000000000000000000000000000000000000000000081525081526020016040518060400160405280600981526020017f6f72616e6765726564000000000000000000000000000000000000000000000081525081526020016040518060400160405280600681526020017f6f7263686964000000000000000000000000000000000000000000000000000081525081526020016040518060400160405280600d81526020017f70616c65676f6c64656e726f640000000000000000000000000000000000000081525081526020016040518060400160405280600981526020017f70616c65677265656e000000000000000000000000000000000000000000000081525081526020016040518060400160405280600d81526020017f70616c6574757271756f6973650000000000000000000000000000000000000081525081526020016040518060400160405280600d81526020017f70616c6576696f6c65747265640000000000000000000000000000000000000081525081526020016040518060400160405280600a81526020017f706170617961776869700000000000000000000000000000000000000000000081525081526020016040518060400160405280600981526020017f706561636870756666000000000000000000000000000000000000000000000081525081526020016040518060400160405280600481526020017f706572750000000000000000000000000000000000000000000000000000000081525081526020016040518060400160405280600481526020017f70696e6b0000000000000000000000000000000000000000000000000000000081525081526020016040518060400160405280600481526020017f706c756d0000000000000000000000000000000000000000000000000000000081525081526020016040518060400160405280600a81526020017f706f77646572626c75650000000000000000000000000000000000000000000081525081526020016040518060400160405280600681526020017f707572706c65000000000000000000000000000000000000000000000000000081525081526020016040518060400160405280600381526020017f726564000000000000000000000000000000000000000000000000000000000081525081526020016040518060400160405280600981526020017f726f737962726f776e000000000000000000000000000000000000000000000081525081526020016040518060400160405280600981526020017f726f79616c626c7565000000000000000000000000000000000000000000000081525081526020016040518060400160405280600b81526020017f736164646c6562726f776e00000000000000000000000000000000000000000081525081526020016040518060400160405280600681526020017f73616c6d6f6e000000000000000000000000000000000000000000000000000081525081526020016040518060400160405280600a81526020017f73616e647962726f776e0000000000000000000000000000000000000000000081525081526020016040518060400160405280600881526020017f736561677265656e00000000000000000000000000000000000000000000000081525081526020016040518060400160405280600881526020017f7365617368656c6c00000000000000000000000000000000000000000000000081525081526020016040518060400160405280600681526020017f7369656e6e61000000000000000000000000000000000000000000000000000081525081526020016040518060400160405280600681526020017f73696c766572000000000000000000000000000000000000000000000000000081525081526020016040518060400160405280600781526020017f736b79626c75650000000000000000000000000000000000000000000000000081525081526020016040518060400160405280600981526020017f736c617465626c7565000000000000000000000000000000000000000000000081525081526020016040518060400160405280600981526020017f736c61746567726179000000000000000000000000000000000000000000000081525081526020016040518060400160405280600981526020017f736c61746567726579000000000000000000000000000000000000000000000081525081526020016040518060400160405280600481526020017f736e6f770000000000000000000000000000000000000000000000000000000081525081526020016040518060400160405280600b81526020017f737072696e67677265656e00000000000000000000000000000000000000000081525081526020016040518060400160405280600981526020017f737465656c626c7565000000000000000000000000000000000000000000000081525081526020016040518060400160405280600381526020017f74616e000000000000000000000000000000000000000000000000000000000081525081526020016040518060400160405280600481526020017f7465616c0000000000000000000000000000000000000000000000000000000081525081526020016040518060400160405280600781526020017f74686973746c650000000000000000000000000000000000000000000000000081525081526020016040518060400160405280600681526020017f746f6d61746f000000000000000000000000000000000000000000000000000081525081526020016040518060400160405280600981526020017f74757271756f697365000000000000000000000000000000000000000000000081525081526020016040518060400160405280600681526020017f76696f6c6574000000000000000000000000000000000000000000000000000081525081526020016040518060400160405280600581526020017f776865617400000000000000000000000000000000000000000000000000000081525081526020016040518060400160405280600681526020017f79656c6c6f77000000000000000000000000000000000000000000000000000081525081526020016040518060400160405280600b81526020017f79656c6c6f77677265656e000000000000000000000000000000000000000000815250815250600d90608d6200295192919062002c9e565b503480156200295f57600080fd5b506040518060400160405280600981526020017f5371756172654e465400000000000000000000000000000000000000000000008152506040518060400160405280600681526020017f53515541524500000000000000000000000000000000000000000000000000008152508160009080519060200190620029e492919062002b3f565b508060019080519060200190620029fd92919062002b3f565b50505062002a4b6040518060400160405280601e81526020017f54686973206973206d79204e465420636f6e74726163742e2057686f6121000081525062002a7360201b620011f81760201c565b6064444262002a5b919062002e13565b62002a67919062002ee6565b60088190555062002fbc565b62002b138160405160240162002a8a919062002dd3565b6040516020818303038152906040527f41304fac000000000000000000000000000000000000000000000000000000007bffffffffffffffffffffffffffffffffffffffffffffffffffffffff19166020820180517bffffffffffffffffffffffffffffffffffffffffffffffffffffffff838183161783525050505062002b1660201b60201c565b50565b60008151905060006a636f6e736f6c652e6c6f679050602083016000808483855afa5050505050565b82805462002b4d9062002eb0565b90600052602060002090601f01602090048101928262002b71576000855562002bbd565b82601f1062002b8c57805160ff191683800117855562002bbd565b8280016001018555821562002bbd579182015b8281111562002bbc57825182559160200191906001019062002b9f565b5b50905062002bcc919062002d05565b5090565b82805482825590600052602060002090810192821562002c24579160200282015b8281111562002c2357825182908051906020019062002c1292919062002b3f565b509160200191906001019062002bf1565b5b50905062002c33919062002d24565b5090565b82805482825590600052602060002090810192821562002c8b579160200282015b8281111562002c8a57825182908051906020019062002c7992919062002b3f565b509160200191906001019062002c58565b5b50905062002c9a919062002d24565b5090565b82805482825590600052602060002090810192821562002cf2579160200282015b8281111562002cf157825182908051906020019062002ce092919062002b3f565b509160200191906001019062002cbf565b5b50905062002d01919062002d24565b5090565b5b8082111562002d2057600081600090555060010162002d06565b5090565b5b8082111562002d48576000818162002d3e919062002d4c565b5060010162002d25565b5090565b50805462002d5a9062002eb0565b6000825580601f1062002d6e575062002d8f565b601f01602090049060005260206000209081019062002d8e919062002d05565b5b50565b600062002d9f8262002df7565b62002dab818562002e02565b935062002dbd81856020860162002e7a565b62002dc88162002fab565b840191505092915050565b6000602082019050818103600083015262002def818462002d92565b905092915050565b600081519050919050565b600082825260208201905092915050565b600062002e208262002e70565b915062002e2d8362002e70565b9250827fffffffffffffffffffffffffffffffffffffffffffffffffffffffffffffffff0382111562002e655762002e6462002f1e565b5b828201905092915050565b6000819050919050565b60005b8381101562002e9a57808201518184015260208101905062002e7d565b8381111562002eaa576000848401525b50505050565b6000600282049050600182168062002ec957607f821691505b6020821081141562002ee05762002edf62002f7c565b5b50919050565b600062002ef38262002e70565b915062002f008362002e70565b92508262002f135762002f1262002f4d565b5b828206905092915050565b7f4e487b7100000000000000000000000000000000000000000000000000000000600052601160045260246000fd5b7f4e487b7100000000000000000000000000000000000000000000000000000000600052601260045260246000fd5b7f4e487b7100000000000000000000000000000000000000000000000000000000600052602260045260246000fd5b6000601f19601f8301169050919050565b613a718062002fcc6000396000f3fe608060405234801561001057600080fd5b50600436106101165760003560e01c80636352211e116100a2578063a22cb46511610071578063a22cb46514610319578063b88d4fde14610335578063c87b56dd14610351578063de9d132f14610381578063e985e9c51461038b57610116565b80636352211e1461026b57806370a082311461029b57806380aadff6146102cb57806395d89b41146102fb57610116565b8063095ea7b3116100e9578063095ea7b3146101b757806323b872dd146101d357806338da03ee146101ef57806342842e0e1461021f578063514dc8c61461023b57610116565b806301ffc9a71461011b578063060475901461014b57806306fdde0314610169578063081812fc14610187575b600080fd5b610135600480360381019061013091906125d9565b6103bb565b60405161014291906132c7565b60405180910390f35b61015361049d565b6040516101609190613562565b60405180910390f35b6101716104ae565b60405161017e91906132e2565b60405180910390f35b6101a1600480360381019061019c919061262b565b610540565b6040516101ae9190613237565b60405180910390f35b6101d160048036038101906101cc919061259d565b6105c5565b005b6101ed60048036038101906101e89190612497565b6106dd565b005b6102096004803603810190610204919061262b565b61073d565b60405161021691906132e2565b60405180910390f35b61023960048036038101906102349190612497565b610887565b005b6102556004803603810190610250919061262b565b6108a7565b60405161026291906132e2565b60405180910390f35b6102856004803603810190610280919061262b565b6109f1565b6040516102929190613237565b60405180910390f35b6102b560048036038101906102b09190612432565b610aa3565b6040516102c29190613562565b60405180910390f35b6102e560048036038101906102e0919061262b565b610b5b565b6040516102f291906132e2565b60405180910390f35b610303610ca5565b60405161031091906132e2565b60405180910390f35b610333600480360381019061032e9190612561565b610d37565b005b61034f600480360381019061034a91906124e6565b610d4d565b005b61036b6004803603810190610366919061262b565b610daf565b60405161037891906132e2565b60405180910390f35b610389610f01565b005b6103a560048036038101906103a0919061245b565b611164565b6040516103b291906132c7565b60405180910390f35b60007f80ac58cd000000000000000000000000000000000000000000000000000000007bffffffffffffffffffffffffffffffffffffffffffffffffffffffff1916827bffffffffffffffffffffffffffffffffffffffffffffffffffffffff1916148061048657507f5b5e139f000000000000000000000000000000000000000000000000000000007bffffffffffffffffffffffffffffffffffffffffffffffffffffffff1916827bffffffffffffffffffffffffffffffffffffffffffffffffffffffff1916145b80610496575061049582611291565b5b9050919050565b60006104a960076112fb565b905090565b6060600080546104bd90613801565b80601f01602080910402602001604051908101604052809291908181526020018280546104e990613801565b80156105365780601f1061050b57610100808354040283529160200191610536565b820191906000526020600020905b81548152906001019060200180831161051957829003601f168201915b5050505050905090565b600061054b82611309565b61058a576040517f08c379a0000000000000000000000000000000000000000000000000000000008152600401610581906134c2565b60405180910390fd5b6004600083815260200190815260200160002060009054906101000a900473ffffffffffffffffffffffffffffffffffffffff169050919050565b60006105d0826109f1565b90508073ffffffffffffffffffffffffffffffffffffffff168373ffffffffffffffffffffffffffffffffffffffff161415610641576040517f08c379a000000000000000000000000000000000000000000000000000000000815260040161063890613522565b60405180910390fd5b8073ffffffffffffffffffffffffffffffffffffffff16610660611375565b73ffffffffffffffffffffffffffffffffffffffff16148061068f575061068e81610689611375565b611164565b5b6106ce576040517f08c379a00000000000000000000000000000000000000000000000000000000081526004016106c590613402565b60405180910390fd5b6106d8838361137d565b505050565b6106ee6106e8611375565b82611436565b61072d576040517f08c379a000000000000000000000000000000000000000000000000000000000815260040161072490613542565b60405180910390fd5b610738838383611514565b505050565b6060600061077161074d84611770565b60405160200161075d919061318c565b60405160208183030381529060405261191d565b905060085442446107829190613636565b61078c9190613636565b600881905550600c80549050600854826107a69190613636565b6107b0919061387c565b9050600c81815481106107ec577f4e487b7100000000000000000000000000000000000000000000000000000000600052603260045260246000fd5b90600052602060002001805461080190613801565b80601f016020809104026020016040519081016040528092919081815260200182805461082d90613801565b801561087a5780601f1061084f5761010080835404028352916020019161087a565b820191906000526020600020905b81548152906001019060200180831161085d57829003601f168201915b5050505050915050919050565b6108a283838360405180602001604052806000815250610d4d565b505050565b606060006108db6108b784611770565b6040516020016108c7919061316a565b60405160208183030381529060405261191d565b905060085442446108ec9190613636565b6108f69190613636565b600881905550600d80549050600854826109109190613636565b61091a919061387c565b9050600d8181548110610956577f4e487b7100000000000000000000000000000000000000000000000000000000600052603260045260246000fd5b90600052602060002001805461096b90613801565b80601f016020809104026020016040519081016040528092919081815260200182805461099790613801565b80156109e45780601f106109b9576101008083540402835291602001916109e4565b820191906000526020600020905b8154815290600101906020018083116109c757829003601f168201915b5050505050915050919050565b6000806002600084815260200190815260200160002060009054906101000a900473ffffffffffffffffffffffffffffffffffffffff169050600073ffffffffffffffffffffffffffffffffffffffff168173ffffffffffffffffffffffffffffffffffffffff161415610a9a576040517f08c379a0000000000000000000000000000000000000000000000000000000008152600401610a9190613442565b60405180910390fd5b80915050919050565b60008073ffffffffffffffffffffffffffffffffffffffff168273ffffffffffffffffffffffffffffffffffffffff161415610b14576040517f08c379a0000000000000000000000000000000000000000000000000000000008152600401610b0b90613422565b60405180910390fd5b600360008373ffffffffffffffffffffffffffffffffffffffff1673ffffffffffffffffffffffffffffffffffffffff168152602001908152602001600020549050919050565b60606000610b8f610b6b84611770565b604051602001610b7b91906131ae565b60405160208183030381529060405261191d565b90506008544244610ba09190613636565b610baa9190613636565b600881905550600b8054905060085482610bc49190613636565b610bce919061387c565b9050600b8181548110610c0a577f4e487b7100000000000000000000000000000000000000000000000000000000600052603260045260246000fd5b906000526020600020018054610c1f90613801565b80601f0160208091040260200160405190810160405280929190818152602001828054610c4b90613801565b8015610c985780601f10610c6d57610100808354040283529160200191610c98565b820191906000526020600020905b815481529060010190602001808311610c7b57829003601f168201915b5050505050915050919050565b606060018054610cb490613801565b80601f0160208091040260200160405190810160405280929190818152602001828054610ce090613801565b8015610d2d5780601f10610d0257610100808354040283529160200191610d2d565b820191906000526020600020905b815481529060010190602001808311610d1057829003601f168201915b5050505050905090565b610d49610d42611375565b8383611950565b5050565b610d5e610d58611375565b83611436565b610d9d576040517f08c379a0000000000000000000000000000000000000000000000000000000008152600401610d9490613542565b60405180910390fd5b610da984848484611abd565b50505050565b6060610dba82611309565b610df9576040517f08c379a0000000000000000000000000000000000000000000000000000000008152600401610df0906134a2565b60405180910390fd5b6000600660008481526020019081526020016000208054610e1990613801565b80601f0160208091040260200160405190810160405280929190818152602001828054610e4590613801565b8015610e925780601f10610e6757610100808354040283529160200191610e92565b820191906000526020600020905b815481529060010190602001808311610e7557829003601f168201915b505050505090506000610ea3611b19565b9050600081511415610eb9578192505050610efc565b600082511115610eee578082604051602001610ed692919061309a565b60405160208183030381529060405292505050610efc565b610ef784611b30565b925050505b919050565b6032610f0d60076112fb565b10610f4d576040517f08c379a0000000000000000000000000000000000000000000000000000000008152600401610f44906133e2565b60405180910390fd5b6000610f5960076112fb565b90506000610f66826108a7565b90506000610f7383610b5b565b610f7c84610b5b565b610f8585610b5b565b610f8e8661073d565b610f978761073d565b610fa08861073d565b604051602001610fb5969594939291906130be565b60405160208183030381529060405290506000600983600a84604051602001610fe19493929190613121565b604051602081830303815290604052905060006110268361100184611bd7565b6040516020016110129291906131d0565b604051602081830303815290604052611bd7565b905061103961103483611bd7565b6111f8565b60008160405160200161104c9190613215565b604051602081830303815290604052905061109b6040518060400160405280601581526020017f0a2d2d2d2d2d2d2d2d2d2d2d2d2d2d2d2d2d2d2d2d00000000000000000000008152506111f8565b6110a4816111f8565b6110e26040518060400160405280601581526020017f2d2d2d2d2d2d2d2d2d2d2d2d2d2d2d2d2d2d2d2d0a00000000000000000000008152506111f8565b6110ec3387611d76565b6110f68682611d94565b6111196040518060600160405280602581526020016139d7602591398733611e08565b6111236007611ea7565b7febb98688741ffa4c7589bf325de30cf7becb63de567842e1ccdb6cb949fdc82c338760405161115492919061329e565b60405180910390a1505050505050565b6000600560008473ffffffffffffffffffffffffffffffffffffffff1673ffffffffffffffffffffffffffffffffffffffff16815260200190815260200160002060008373ffffffffffffffffffffffffffffffffffffffff1673ffffffffffffffffffffffffffffffffffffffff16815260200190815260200160002060009054906101000a900460ff16905092915050565b61128e8160405160240161120c91906132e2565b6040516020818303038152906040527f41304fac000000000000000000000000000000000000000000000000000000007bffffffffffffffffffffffffffffffffffffffffffffffffffffffff19166020820180517bffffffffffffffffffffffffffffffffffffffffffffffffffffffff8381831617835250505050611ebd565b50565b60007f01ffc9a7000000000000000000000000000000000000000000000000000000007bffffffffffffffffffffffffffffffffffffffffffffffffffffffff1916827bffffffffffffffffffffffffffffffffffffffffffffffffffffffff1916149050919050565b600081600001549050919050565b60008073ffffffffffffffffffffffffffffffffffffffff166002600084815260200190815260200160002060009054906101000a900473ffffffffffffffffffffffffffffffffffffffff1673ffffffffffffffffffffffffffffffffffffffff1614159050919050565b600033905090565b816004600083815260200190815260200160002060006101000a81548173ffffffffffffffffffffffffffffffffffffffff021916908373ffffffffffffffffffffffffffffffffffffffff160217905550808273ffffffffffffffffffffffffffffffffffffffff166113f0836109f1565b73ffffffffffffffffffffffffffffffffffffffff167f8c5be1e5ebec7d5bd14f71427d1e84f3dd0314c0f7b2291e5b200ac8c7c3b92560405160405180910390a45050565b600061144182611309565b611480576040517f08c379a0000000000000000000000000000000000000000000000000000000008152600401611477906133c2565b60405180910390fd5b600061148b836109f1565b90508073ffffffffffffffffffffffffffffffffffffffff168473ffffffffffffffffffffffffffffffffffffffff1614806114fa57508373ffffffffffffffffffffffffffffffffffffffff166114e284610540565b73ffffffffffffffffffffffffffffffffffffffff16145b8061150b575061150a8185611164565b5b91505092915050565b8273ffffffffffffffffffffffffffffffffffffffff16611534826109f1565b73ffffffffffffffffffffffffffffffffffffffff161461158a576040517f08c379a0000000000000000000000000000000000000000000000000000000008152600401611581906134e2565b60405180910390fd5b600073ffffffffffffffffffffffffffffffffffffffff168273ffffffffffffffffffffffffffffffffffffffff1614156115fa576040517f08c379a00000000000000000000000000000000000000000000000000000000081526004016115f190613382565b60405180910390fd5b611605838383611ee6565b61161060008261137d565b6001600360008573ffffffffffffffffffffffffffffffffffffffff1673ffffffffffffffffffffffffffffffffffffffff16815260200190815260200160002060008282546116609190613717565b925050819055506001600360008473ffffffffffffffffffffffffffffffffffffffff1673ffffffffffffffffffffffffffffffffffffffff16815260200190815260200160002060008282546116b79190613636565b92505081905550816002600083815260200190815260200160002060006101000a81548173ffffffffffffffffffffffffffffffffffffffff021916908373ffffffffffffffffffffffffffffffffffffffff160217905550808273ffffffffffffffffffffffffffffffffffffffff168473ffffffffffffffffffffffffffffffffffffffff167fddf252ad1be2c89b69c2b068fc378daa952ba7f163c4a11628f55a4df523b3ef60405160405180910390a4505050565b606060008214156117b8576040518060400160405280600181526020017f30000000000000000000000000000000000000000000000000000000000000008152509050611918565b600082905060005b600082146117ea5780806117d390613833565b915050600a826117e3919061368c565b91506117c0565b60008167ffffffffffffffff81111561182c577f4e487b7100000000000000000000000000000000000000000000000000000000600052604160045260246000fd5b6040519080825280601f01601f19166020018201604052801561185e5781602001600182028036833780820191505090505b5090505b60008514611911576001826118779190613717565b9150600a85611886919061387c565b60306118929190613636565b60f81b8183815181106118ce577f4e487b7100000000000000000000000000000000000000000000000000000000600052603260045260246000fd5b60200101907effffffffffffffffffffffffffffffffffffffffffffffffffffffffffffff1916908160001a905350600a8561190a919061368c565b9450611862565b8093505050505b919050565b6000816040516020016119309190613083565b6040516020818303038152906040528051906020012060001c9050919050565b8173ffffffffffffffffffffffffffffffffffffffff168373ffffffffffffffffffffffffffffffffffffffff1614156119bf576040517f08c379a00000000000000000000000000000000000000000000000000000000081526004016119b6906133a2565b60405180910390fd5b80600560008573ffffffffffffffffffffffffffffffffffffffff1673ffffffffffffffffffffffffffffffffffffffff16815260200190815260200160002060008473ffffffffffffffffffffffffffffffffffffffff1673ffffffffffffffffffffffffffffffffffffffff16815260200190815260200160002060006101000a81548160ff0219169083151502179055508173ffffffffffffffffffffffffffffffffffffffff168373ffffffffffffffffffffffffffffffffffffffff167f17307eab39ab6107e8899845ad3d59bd9653f200f220920489ca2b5937696c3183604051611ab091906132c7565b60405180910390a3505050565b611ac8848484611514565b611ad484848484611eeb565b611b13576040517f08c379a0000000000000000000000000000000000000000000000000000000008152600401611b0a90613342565b60405180910390fd5b50505050565b606060405180602001604052806000815250905090565b6060611b3b82611309565b611b7a576040517f08c379a0000000000000000000000000000000000000000000000000000000008152600401611b7190613502565b60405180910390fd5b6000611b84611b19565b90506000815111611ba45760405180602001604052806000815250611bcf565b80611bae84611770565b604051602001611bbf92919061309a565b6040516020818303038152906040525b915050919050565b6060600082511415611bfa57604051806020016040528060008152509050611d71565b60006040518060600160405280604081526020016139fc6040913990506000600360028551611c299190613636565b611c33919061368c565b6004611c3f91906136bd565b90506000602082611c509190613636565b67ffffffffffffffff811115611c8f577f4e487b7100000000000000000000000000000000000000000000000000000000600052604160045260246000fd5b6040519080825280601f01601f191660200182016040528015611cc15781602001600182028036833780820191505090505b509050818152600183018586518101602084015b81831015611d30576003830192508251603f8160121c168501518253600182019150603f81600c1c168501518253600182019150603f8160061c168501518253600182019150603f8116850151825360018201915050611cd5565b600389510660018114611d4a5760028114611d5a57611d65565b613d3d60f01b6002830352611d65565b603d60f81b60018303525b50505050508093505050505b919050565b611d90828260405180602001604052806000815250612082565b5050565b611d9d82611309565b611ddc576040517f08c379a0000000000000000000000000000000000000000000000000000000008152600401611dd390613462565b60405180910390fd5b80600660008481526020019081526020016000209080519060200190611e039291906122be565b505050565b611ea2838383604051602401611e2093929190613304565b6040516020818303038152906040527fe3849f79000000000000000000000000000000000000000000000000000000007bffffffffffffffffffffffffffffffffffffffffffffffffffffffff19166020820180517bffffffffffffffffffffffffffffffffffffffffffffffffffffffff8381831617835250505050611ebd565b505050565b6001816000016000828254019250508190555050565b60008151905060006a636f6e736f6c652e6c6f679050602083016000808483855afa5050505050565b505050565b6000611f0c8473ffffffffffffffffffffffffffffffffffffffff166120dd565b15612075578373ffffffffffffffffffffffffffffffffffffffff1663150b7a02611f35611375565b8786866040518563ffffffff1660e01b8152600401611f579493929190613252565b602060405180830381600087803b158015611f7157600080fd5b505af1925050508015611fa257506040513d601f19601f82011682018060405250810190611f9f9190612602565b60015b612025573d8060008114611fd2576040519150601f19603f3d011682016040523d82523d6000602084013e611fd7565b606091505b5060008151141561201d576040517f08c379a000000000000000000000000000000000000000000000000000000000815260040161201490613342565b60405180910390fd5b805181602001fd5b63150b7a0260e01b7bffffffffffffffffffffffffffffffffffffffffffffffffffffffff1916817bffffffffffffffffffffffffffffffffffffffffffffffffffffffff19161491505061207a565b600190505b949350505050565b61208c83836120f0565b6120996000848484611eeb565b6120d8576040517f08c379a00000000000000000000000000000000000000000000000000000000081526004016120cf90613342565b60405180910390fd5b505050565b600080823b905060008111915050919050565b600073ffffffffffffffffffffffffffffffffffffffff168273ffffffffffffffffffffffffffffffffffffffff161415612160576040517f08c379a000000000000000000000000000000000000000000000000000000000815260040161215790613482565b60405180910390fd5b61216981611309565b156121a9576040517f08c379a00000000000000000000000000000000000000000000000000000000081526004016121a090613362565b60405180910390fd5b6121b560008383611ee6565b6001600360008473ffffffffffffffffffffffffffffffffffffffff1673ffffffffffffffffffffffffffffffffffffffff16815260200190815260200160002060008282546122059190613636565b92505081905550816002600083815260200190815260200160002060006101000a81548173ffffffffffffffffffffffffffffffffffffffff021916908373ffffffffffffffffffffffffffffffffffffffff160217905550808273ffffffffffffffffffffffffffffffffffffffff16600073ffffffffffffffffffffffffffffffffffffffff167fddf252ad1be2c89b69c2b068fc378daa952ba7f163c4a11628f55a4df523b3ef60405160405180910390a45050565b8280546122ca90613801565b90600052602060002090601f0160209004810192826122ec5760008555612333565b82601f1061230557805160ff1916838001178555612333565b82800160010185558215612333579182015b82811115612332578251825591602001919060010190612317565b5b5090506123409190612344565b5090565b5b8082111561235d576000816000905550600101612345565b5090565b600061237461236f846135ae565b61357d565b90508281526020810184848401111561238c57600080fd5b6123978482856137bf565b509392505050565b6000813590506123ae8161397a565b92915050565b6000813590506123c381613991565b92915050565b6000813590506123d8816139a8565b92915050565b6000815190506123ed816139a8565b92915050565b600082601f83011261240457600080fd5b8135612414848260208601612361565b91505092915050565b60008135905061242c816139bf565b92915050565b60006020828403121561244457600080fd5b60006124528482850161239f565b91505092915050565b6000806040838503121561246e57600080fd5b600061247c8582860161239f565b925050602061248d8582860161239f565b9150509250929050565b6000806000606084860312156124ac57600080fd5b60006124ba8682870161239f565b93505060206124cb8682870161239f565b92505060406124dc8682870161241d565b9150509250925092565b600080600080608085870312156124fc57600080fd5b600061250a8782880161239f565b945050602061251b8782880161239f565b935050604061252c8782880161241d565b925050606085013567ffffffffffffffff81111561254957600080fd5b612555878288016123f3565b91505092959194509250565b6000806040838503121561257457600080fd5b60006125828582860161239f565b9250506020612593858286016123b4565b9150509250929050565b600080604083850312156125b057600080fd5b60006125be8582860161239f565b92505060206125cf8582860161241d565b9150509250929050565b6000602082840312156125eb57600080fd5b60006125f9848285016123c9565b91505092915050565b60006020828403121561261457600080fd5b6000612622848285016123de565b91505092915050565b60006020828403121561263d57600080fd5b600061264b8482850161241d565b91505092915050565b61265d8161374b565b82525050565b61266c8161375d565b82525050565b600061267d826135f3565b6126878185613609565b93506126978185602086016137ce565b6126a081613969565b840191505092915050565b60006126b6826135fe565b6126c0818561361a565b93506126d08185602086016137ce565b6126d981613969565b840191505092915050565b60006126ef826135fe565b6126f9818561362b565b93506127098185602086016137ce565b80840191505092915050565b6000815461272281613801565b61272c818661362b565b9450600182166000811461274757600181146127585761278b565b60ff1983168652818601935061278b565b612761856135de565b60005b8381101561278357815481890152600182019150602081019050612764565b838801955050505b50505092915050565b60006127a160068361362b565b91507f434f4c4f525300000000000000000000000000000000000000000000000000006000830152600682019050919050565b60006127e160328361361a565b91507f4552433732313a207472616e7366657220746f206e6f6e20455243373231526560008301527f63656976657220696d706c656d656e74657200000000000000000000000000006020830152604082019050919050565b600061284760078361362b565b91507f4e554d42455253000000000000000000000000000000000000000000000000006000830152600782019050919050565b6000612887601c8361361a565b91507f4552433732313a20746f6b656e20616c7265616479206d696e746564000000006000830152602082019050919050565b60006128c760248361361a565b91507f4552433732313a207472616e7366657220746f20746865207a65726f2061646460008301527f72657373000000000000000000000000000000000000000000000000000000006020830152604082019050919050565b600061292d60198361361a565b91507f4552433732313a20617070726f766520746f2063616c6c6572000000000000006000830152602082019050919050565b600061296d60638361362b565b91507f222c20226465736372697074696f6e223a20224120686967686c79206163636c60008301527f61696d656420636f6c6c656374696f6e206f6620737175617265732e222c202260208301527f696d616765223a2022646174613a696d6167652f7376672b786d6c3b6261736560408301527f36342c00000000000000000000000000000000000000000000000000000000006060830152606382019050919050565b6000612a1f602c8361361a565b91507f4552433732313a206f70657261746f7220717565727920666f72206e6f6e657860008301527f697374656e7420746f6b656e00000000000000000000000000000000000000006020830152604082019050919050565b6000612a85600d8361362b565b91507f3c2f746578743e3c2f7376673e000000000000000000000000000000000000006000830152600d82019050919050565b6000612ac5601f8361361a565b91507f4e46542773204c696d69742052656163686564206f66203530204e4654732e006000830152602082019050919050565b6000612b0560388361361a565b91507f4552433732313a20617070726f76652063616c6c6572206973206e6f74206f7760008301527f6e6572206e6f7220617070726f76656420666f7220616c6c00000000000000006020830152604082019050919050565b6000612b6b602a8361361a565b91507f4552433732313a2062616c616e636520717565727920666f7220746865207a6560008301527f726f2061646472657373000000000000000000000000000000000000000000006020830152604082019050919050565b6000612bd160298361361a565b91507f4552433732313a206f776e657220717565727920666f72206e6f6e657869737460008301527f656e7420746f6b656e00000000000000000000000000000000000000000000006020830152604082019050919050565b6000612c37602e8361361a565b91507f45524337323155524953746f726167653a2055524920736574206f66206e6f6e60008301527f6578697374656e7420746f6b656e0000000000000000000000000000000000006020830152604082019050919050565b6000612c9d60028361362b565b91507f227d0000000000000000000000000000000000000000000000000000000000006000830152600282019050919050565b6000612cdd60078361362b565b91507f4c455454455253000000000000000000000000000000000000000000000000006000830152600782019050919050565b6000612d1d60208361361a565b91507f4552433732313a206d696e7420746f20746865207a65726f20616464726573736000830152602082019050919050565b6000612d5d60318361361a565b91507f45524337323155524953746f726167653a2055524920717565727920666f722060008301527f6e6f6e6578697374656e7420746f6b656e0000000000000000000000000000006020830152604082019050919050565b6000612dc3602c8361361a565b91507f4552433732313a20617070726f76656420717565727920666f72206e6f6e657860008301527f697374656e7420746f6b656e00000000000000000000000000000000000000006020830152604082019050919050565b6000612e2960298361361a565b91507f4552433732313a207472616e73666572206f6620746f6b656e2074686174206960008301527f73206e6f74206f776e00000000000000000000000000000000000000000000006020830152604082019050919050565b6000612e8f602f8361361a565b91507f4552433732314d657461646174613a2055524920717565727920666f72206e6f60008301527f6e6578697374656e7420746f6b656e00000000000000000000000000000000006020830152604082019050919050565b6000612ef5600a8361362b565b91507f7b226e616d65223a2022000000000000000000000000000000000000000000006000830152600a82019050919050565b6000612f3560218361361a565b91507f4552433732313a20617070726f76616c20746f2063757272656e74206f776e6560008301527f72000000000000000000000000000000000000000000000000000000000000006020830152604082019050919050565b6000612f9b601d8361362b565b91507f646174613a6170706c69636174696f6e2f6a736f6e3b6261736536342c0000006000830152601d82019050919050565b6000612fdb60318361361a565b91507f4552433732313a207472616e736665722063616c6c6572206973206e6f74206f60008301527f776e6572206e6f7220617070726f7665640000000000000000000000000000006020830152604082019050919050565b600061304160018361362b565b91507f2d000000000000000000000000000000000000000000000000000000000000006000830152600182019050919050565b61307d816137b5565b82525050565b600061308f82846126e4565b915081905092915050565b60006130a682856126e4565b91506130b282846126e4565b91508190509392505050565b60006130ca82896126e4565b91506130d682886126e4565b91506130e282876126e4565b91506130ed82613034565b91506130f982866126e4565b915061310582856126e4565b915061311182846126e4565b9150819050979650505050505050565b600061312d8287612715565b915061313982866126e4565b91506131458285612715565b915061315182846126e4565b915061315c82612a78565b915081905095945050505050565b600061317582612794565b915061318182846126e4565b915081905092915050565b60006131978261283a565b91506131a382846126e4565b915081905092915050565b60006131b982612cd0565b91506131c582846126e4565b915081905092915050565b60006131db82612ee8565b91506131e782856126e4565b91506131f282612960565b91506131fe82846126e4565b915061320982612c90565b91508190509392505050565b600061322082612f8e565b915061322c82846126e4565b915081905092915050565b600060208201905061324c6000830184612654565b92915050565b60006080820190506132676000830187612654565b6132746020830186612654565b6132816040830185613074565b81810360608301526132938184612672565b905095945050505050565b60006040820190506132b36000830185612654565b6132c06020830184613074565b9392505050565b60006020820190506132dc6000830184612663565b92915050565b600060208201905081810360008301526132fc81846126ab565b905092915050565b6000606082019050818103600083015261331e81866126ab565b905061332d6020830185613074565b61333a6040830184612654565b949350505050565b6000602082019050818103600083015261335b816127d4565b9050919050565b6000602082019050818103600083015261337b8161287a565b9050919050565b6000602082019050818103600083015261339b816128ba565b9050919050565b600060208201905081810360008301526133bb81612920565b9050919050565b600060208201905081810360008301526133db81612a12565b9050919050565b600060208201905081810360008301526133fb81612ab8565b9050919050565b6000602082019050818103600083015261341b81612af8565b9050919050565b6000602082019050818103600083015261343b81612b5e565b9050919050565b6000602082019050818103600083015261345b81612bc4565b9050919050565b6000602082019050818103600083015261347b81612c2a565b9050919050565b6000602082019050818103600083015261349b81612d10565b9050919050565b600060208201905081810360008301526134bb81612d50565b9050919050565b600060208201905081810360008301526134db81612db6565b9050919050565b600060208201905081810360008301526134fb81612e1c565b9050919050565b6000602082019050818103600083015261351b81612e82565b9050919050565b6000602082019050818103600083015261353b81612f28565b9050919050565b6000602082019050818103600083015261355b81612fce565b9050919050565b60006020820190506135776000830184613074565b92915050565b6000604051905081810181811067ffffffffffffffff821117156135a4576135a361393a565b5b8060405250919050565b600067ffffffffffffffff8211156135c9576135c861393a565b5b601f19601f8301169050602081019050919050565b60008190508160005260206000209050919050565b600081519050919050565b600081519050919050565b600082825260208201905092915050565b600082825260208201905092915050565b600081905092915050565b6000613641826137b5565b915061364c836137b5565b9250827fffffffffffffffffffffffffffffffffffffffffffffffffffffffffffffffff03821115613681576136806138ad565b5b828201905092915050565b6000613697826137b5565b91506136a2836137b5565b9250826136b2576136b16138dc565b5b828204905092915050565b60006136c8826137b5565b91506136d3836137b5565b9250817fffffffffffffffffffffffffffffffffffffffffffffffffffffffffffffffff048311821515161561370c5761370b6138ad565b5b828202905092915050565b6000613722826137b5565b915061372d836137b5565b9250828210156137405761373f6138ad565b5b828203905092915050565b600061375682613795565b9050919050565b60008115159050919050565b60007fffffffff0000000000000000000000000000000000000000000000000000000082169050919050565b600073ffffffffffffffffffffffffffffffffffffffff82169050919050565b6000819050919050565b82818337600083830152505050565b60005b838110156137ec5780820151818401526020810190506137d1565b838111156137fb576000848401525b50505050565b6000600282049050600182168061381957607f821691505b6020821081141561382d5761382c61390b565b5b50919050565b600061383e826137b5565b91507fffffffffffffffffffffffffffffffffffffffffffffffffffffffffffffffff821415613871576138706138ad565b5b600182019050919050565b6000613887826137b5565b9150613892836137b5565b9250826138a2576138a16138dc565b5b828206905092915050565b7f4e487b7100000000000000000000000000000000000000000000000000000000600052601160045260246000fd5b7f4e487b7100000000000000000000000000000000000000000000000000000000600052601260045260246000fd5b7f4e487b7100000000000000000000000000000000000000000000000000000000600052602260045260246000fd5b7f4e487b7100000000000000000000000000000000000000000000000000000000600052604160045260246000fd5b6000601f19601f8301169050919050565b6139838161374b565b811461398e57600080fd5b50565b61399a8161375d565b81146139a557600080fd5b50565b6139b181613769565b81146139bc57600080fd5b50565b6139c8816137b5565b81146139d357600080fd5b5056fe416e204e465420772f20494420257320686173206265656e206d696e74656420746f2025734142434445464748494a4b4c4d4e4f505152535455565758595a6162636465666768696a6b6c6d6e6f707172737475767778797a303132333435363738392b2fa264697066735822122046634753c980dc880f4913b3a5af49b347a500c9e60585f2774dcce45151fcaa64736f6c634300080000333c73766720786d6c6e733d27687474703a2f2f7777772e77332e6f72672f323030302f73766727207072657365727665417370656374526174696f3d27784d696e594d696e206d656574272076696577426f783d273020302033353020333530273e3c7374796c653e2e62617365207b2066696c6c3a20626c61636b3b20666f6e742d66616d696c793a2073657269663b20666f6e742d73697a653a20313670783b207d2e7365637265742d636f6465207b2066696c6c3a203b20666f6e742d66616d696c793a2073657269663b20666f6e742d73697a653a20323470783b207d3c2f7374796c653e3c726563742077696474683d273130302527206865696768743d2731303025272066696c6c3d272363636364646427202f3e3c7465787420783d273530252720793d273335252720636c6173733d27626173652720646f6d696e616e742d626173656c696e653d276d6964646c652720746578742d616e63686f723d276d6964646c65273e596f757220536563726574204f706572617469766520436f64653c2f746578743e3c7465787420783d273530252720793d273435252720636c6173733d277365637265742d636f6465272020646f6d696e616e742d626173656c696e653d276d6964646c652720746578742d616e63686f723d276d6964646c65273e",
  "linkReferences": {},
  "deployedLinkReferences": {}
}